{
  "_format": "hh-sol-artifact-1",
  "contractName": "MemeForest",
  "sourceName": "contracts/MemeForest.sol",
  "abi": [
    {
      "anonymous": false,
      "inputs": [
        {
          "indexed": false,
          "internalType": "uint256",
          "name": "MemeId",
          "type": "uint256"
        },
        {
          "indexed": false,
          "internalType": "string",
          "name": "MemeInfo",
          "type": "string"
        },
        {
          "indexed": false,
          "internalType": "address",
          "name": "MemeCreator",
          "type": "address"
        },
        {
          "indexed": false,
          "internalType": "bool",
          "name": "IsMemeStarred",
          "type": "bool"
        },
        {
          "indexed": false,
          "internalType": "uint256",
          "name": "MemeStars",
          "type": "uint256"
        },
        {
          "indexed": false,
          "internalType": "uint256",
          "name": "MemeLikes",
          "type": "uint256"
        },
        {
          "indexed": false,
          "internalType": "string",
          "name": "DateOfCreation",
          "type": "string"
        },
        {
          "indexed": false,
          "internalType": "string",
          "name": "Filetype",
          "type": "string"
        },
        {
          "indexed": false,
          "internalType": "bool",
          "name": "IsDownloadable",
          "type": "bool"
        },
        {
          "indexed": false,
          "internalType": "uint256",
          "name": "Membernum",
          "type": "uint256"
        },
        {
          "indexed": false,
          "internalType": "uint256",
          "name": "NewNumberMemberMemes",
          "type": "uint256"
        }
      ],
      "name": "CreateMeme",
      "type": "event"
    },
    {
      "anonymous": false,
      "inputs": [
        {
          "indexed": false,
          "internalType": "uint256",
          "name": "MemeId",
          "type": "uint256"
        },
        {
          "indexed": false,
          "internalType": "uint256",
          "name": "CreatorId",
          "type": "uint256"
        },
        {
          "indexed": false,
          "internalType": "uint256",
          "name": "NewLikesNo",
          "type": "uint256"
        }
      ],
      "name": "LikingMeme",
      "type": "event"
    },
    {
      "anonymous": false,
      "inputs": [
        {
          "indexed": false,
          "internalType": "uint256",
          "name": "MemberId",
          "type": "uint256"
        },
        {
          "indexed": false,
          "internalType": "string",
          "name": "MemberName",
          "type": "string"
        },
        {
          "indexed": false,
          "internalType": "string",
          "name": "Datejoined",
          "type": "string"
        },
        {
          "indexed": false,
          "internalType": "address",
          "name": "MemberAddress",
          "type": "address"
        },
        {
          "indexed": false,
          "internalType": "uint256",
          "name": "MemberTotalMemes",
          "type": "uint256"
        },
        {
          "indexed": false,
          "internalType": "uint256",
          "name": "MemberStarredMemes",
          "type": "uint256"
        },
        {
          "indexed": false,
          "internalType": "uint256",
          "name": "MemberDeletedMemes",
          "type": "uint256"
        },
        {
          "indexed": false,
          "internalType": "uint256",
          "name": "MemberTotalLikes",
          "type": "uint256"
        }
      ],
      "name": "Memberjoined",
      "type": "event"
    },
    {
      "anonymous": false,
      "inputs": [
        {
          "indexed": false,
          "internalType": "uint256",
          "name": "MemeId",
          "type": "uint256"
        },
        {
          "indexed": false,
          "internalType": "uint256",
          "name": "CreatorId",
          "type": "uint256"
        },
        {
          "indexed": false,
          "internalType": "uint256",
          "name": "NewStarNo",
          "type": "uint256"
        },
        {
          "indexed": false,
          "internalType": "uint256",
          "name": "CreatorStarredMemes",
          "type": "uint256"
        }
      ],
      "name": "StarredMeme",
      "type": "event"
    },
    {
      "anonymous": false,
      "inputs": [
        {
          "indexed": false,
          "internalType": "uint256",
          "name": "MemeId",
          "type": "uint256"
        },
        {
          "indexed": false,
          "internalType": "uint256",
          "name": "CreatorId",
          "type": "uint256"
        },
        {
          "indexed": false,
          "internalType": "uint256",
          "name": "NewLikesNo",
          "type": "uint256"
        }
      ],
      "name": "UnLikingMeme",
      "type": "event"
    },
    {
      "anonymous": false,
      "inputs": [
        {
          "indexed": false,
          "internalType": "uint256",
          "name": "MemeId",
          "type": "uint256"
        },
        {
          "indexed": false,
          "internalType": "uint256",
          "name": "CreatorId",
          "type": "uint256"
        },
        {
          "indexed": false,
          "internalType": "uint256",
          "name": "NewStarNo",
          "type": "uint256"
        },
        {
          "indexed": false,
          "internalType": "uint256",
          "name": "CreatorStarredMemes",
          "type": "uint256"
        }
      ],
      "name": "UnStarringMeme",
      "type": "event"
    },
    {
      "inputs": [
        {
          "internalType": "string",
          "name": "_name",
          "type": "string"
        },
        {
          "internalType": "string",
          "name": "_date",
          "type": "string"
        }
      ],
      "name": "CreateMembers",
      "outputs": [],
      "stateMutability": "nonpayable",
      "type": "function"
    },
    {
      "inputs": [
        {
          "internalType": "string",
          "name": "memeinfo",
          "type": "string"
        },
        {
          "internalType": "address",
          "name": "_owner",
          "type": "address"
        },
        {
          "internalType": "string",
          "name": "_date",
          "type": "string"
        },
        {
          "internalType": "string",
          "name": "_filetype",
          "type": "string"
        },
        {
          "internalType": "bool",
          "name": "_isDownloadable",
          "type": "bool"
        }
      ],
      "name": "CreateMemeItems",
      "outputs": [],
      "stateMutability": "nonpayable",
      "type": "function"
    },
    {
      "inputs": [
        {
          "internalType": "address",
          "name": "_member",
          "type": "address"
        }
      ],
      "name": "GetMemberByAddr",
      "outputs": [
        {
          "components": [
            {
              "internalType": "string",
              "name": "Name",
              "type": "string"
            },
            {
              "internalType": "address",
              "name": "MemeberAddress",
              "type": "address"
            },
            {
              "internalType": "uint256",
              "name": "MyId",
              "type": "uint256"
            },
            {
              "internalType": "uint256",
              "name": "MyMemes",
              "type": "uint256"
            },
            {
              "internalType": "uint256",
              "name": "MyStarredMemes",
              "type": "uint256"
            },
            {
              "internalType": "uint256",
              "name": "MyDeletedMemes",
              "type": "uint256"
            },
            {
              "internalType": "string",
              "name": "Datejoined",
              "type": "string"
            }
          ],
          "internalType": "struct MemeForest.MemeMembers[]",
          "name": "",
          "type": "tuple[]"
        }
      ],
      "stateMutability": "view",
      "type": "function"
    },
    {
      "inputs": [
        {
          "internalType": "address",
          "name": "sender",
          "type": "address"
        }
      ],
      "name": "IsAMember",
      "outputs": [
        {
          "internalType": "bool",
          "name": "",
          "type": "bool"
        }
      ],
      "stateMutability": "view",
      "type": "function"
    },
    {
      "inputs": [
        {
          "internalType": "uint256",
          "name": "_id",
          "type": "uint256"
        }
      ],
      "name": "LikeMeme",
      "outputs": [],
      "stateMutability": "nonpayable",
      "type": "function"
    },
    {
      "inputs": [],
      "name": "NumOfAllMembers",
      "outputs": [
        {
          "internalType": "uint256",
          "name": "_value",
          "type": "uint256"
        }
      ],
      "stateMutability": "view",
      "type": "function"
    },
    {
      "inputs": [],
      "name": "NumOfAllMemes",
      "outputs": [
        {
          "internalType": "uint256",
          "name": "_value",
          "type": "uint256"
        }
      ],
      "stateMutability": "view",
      "type": "function"
    },
    {
      "inputs": [],
      "name": "NumberOfUploads",
      "outputs": [
        {
          "internalType": "uint256",
          "name": "",
          "type": "uint256"
        }
      ],
      "stateMutability": "view",
      "type": "function"
    },
    {
      "inputs": [
        {
          "internalType": "uint256",
          "name": "_id",
          "type": "uint256"
        }
      ],
      "name": "RemoveStarMeme",
      "outputs": [],
      "stateMutability": "nonpayable",
      "type": "function"
    },
    {
      "inputs": [
        {
          "internalType": "uint256",
          "name": "_id",
          "type": "uint256"
        }
      ],
      "name": "StarMeme",
      "outputs": [],
      "stateMutability": "nonpayable",
      "type": "function"
    },
    {
      "inputs": [
        {
          "internalType": "uint256",
          "name": "_id",
          "type": "uint256"
        }
      ],
      "name": "UnLikeMeme",
      "outputs": [],
      "stateMutability": "nonpayable",
      "type": "function"
    },
    {
      "inputs": [
        {
          "internalType": "uint256",
          "name": "_id",
          "type": "uint256"
        },
        {
          "internalType": "address",
          "name": "sender",
          "type": "address"
        }
      ],
      "name": "WhatDidILike",
      "outputs": [
        {
          "internalType": "bool",
          "name": "",
          "type": "bool"
        }
      ],
      "stateMutability": "view",
      "type": "function"
    },
    {
      "inputs": [
        {
          "internalType": "uint256",
          "name": "_id",
          "type": "uint256"
        },
        {
          "internalType": "address",
          "name": "sender",
          "type": "address"
        }
      ],
      "name": "WhatDidIStar",
      "outputs": [
        {
          "internalType": "bool",
          "name": "",
          "type": "bool"
        }
      ],
      "stateMutability": "view",
      "type": "function"
    },
    {
      "inputs": [],
      "name": "fetchAllMemes",
      "outputs": [
        {
          "components": [
            {
              "internalType": "string",
              "name": "Memeinfo",
              "type": "string"
            },
            {
              "internalType": "address",
              "name": "Owner",
              "type": "address"
            },
            {
              "internalType": "uint256",
              "name": "fileId",
              "type": "uint256"
            },
            {
              "internalType": "bool",
              "name": "starred",
              "type": "bool"
            },
            {
              "internalType": "uint256",
              "name": "Stars",
              "type": "uint256"
            },
            {
              "internalType": "uint256",
              "name": "Likes",
              "type": "uint256"
            },
            {
              "internalType": "string",
              "name": "DateOfCreation",
              "type": "string"
            },
            {
              "internalType": "string",
              "name": "FileType",
              "type": "string"
            },
            {
              "internalType": "bool",
              "name": "IsDownloadable",
              "type": "bool"
            }
          ],
          "internalType": "struct MemeForest.MemeFiles[]",
          "name": "",
          "type": "tuple[]"
        }
      ],
      "stateMutability": "view",
      "type": "function"
    },
    {
      "inputs": [],
      "name": "fetchMembers",
      "outputs": [
        {
          "components": [
            {
              "internalType": "string",
              "name": "Name",
              "type": "string"
            },
            {
              "internalType": "address",
              "name": "MemeberAddress",
              "type": "address"
            },
            {
              "internalType": "uint256",
              "name": "MyId",
              "type": "uint256"
            },
            {
              "internalType": "uint256",
              "name": "MyMemes",
              "type": "uint256"
            },
            {
              "internalType": "uint256",
              "name": "MyStarredMemes",
              "type": "uint256"
            },
            {
              "internalType": "uint256",
              "name": "MyDeletedMemes",
              "type": "uint256"
            },
            {
              "internalType": "string",
              "name": "Datejoined",
              "type": "string"
            }
          ],
          "internalType": "struct MemeForest.MemeMembers[]",
          "name": "",
          "type": "tuple[]"
        }
      ],
      "stateMutability": "view",
      "type": "function"
    },
    {
      "inputs": [
        {
          "internalType": "address",
          "name": "sender",
          "type": "address"
        }
      ],
      "name": "fetchMyMeme",
      "outputs": [
        {
          "components": [
            {
              "internalType": "string",
              "name": "Memeinfo",
              "type": "string"
            },
            {
              "internalType": "address",
              "name": "Owner",
              "type": "address"
            },
            {
              "internalType": "uint256",
              "name": "fileId",
              "type": "uint256"
            },
            {
              "internalType": "bool",
              "name": "starred",
              "type": "bool"
            },
            {
              "internalType": "uint256",
              "name": "Stars",
              "type": "uint256"
            },
            {
              "internalType": "uint256",
              "name": "Likes",
              "type": "uint256"
            },
            {
              "internalType": "string",
              "name": "DateOfCreation",
              "type": "string"
            },
            {
              "internalType": "string",
              "name": "FileType",
              "type": "string"
            },
            {
              "internalType": "bool",
              "name": "IsDownloadable",
              "type": "bool"
            }
          ],
          "internalType": "struct MemeForest.MemeFiles[]",
          "name": "",
          "type": "tuple[]"
        }
      ],
      "stateMutability": "view",
      "type": "function"
    },
    {
      "inputs": [
        {
          "internalType": "address",
          "name": "sender",
          "type": "address"
        }
      ],
      "name": "fetchMyStarredMemes",
      "outputs": [
        {
          "components": [
            {
              "internalType": "string",
              "name": "Memeinfo",
              "type": "string"
            },
            {
              "internalType": "address",
              "name": "Owner",
              "type": "address"
            },
            {
              "internalType": "uint256",
              "name": "fileId",
              "type": "uint256"
            },
            {
              "internalType": "bool",
              "name": "starred",
              "type": "bool"
            },
            {
              "internalType": "uint256",
              "name": "Stars",
              "type": "uint256"
            },
            {
              "internalType": "uint256",
              "name": "Likes",
              "type": "uint256"
            },
            {
              "internalType": "string",
              "name": "DateOfCreation",
              "type": "string"
            },
            {
              "internalType": "string",
              "name": "FileType",
              "type": "string"
            },
            {
              "internalType": "bool",
              "name": "IsDownloadable",
              "type": "bool"
            }
          ],
          "internalType": "struct MemeForest.MemeFiles[]",
          "name": "",
          "type": "tuple[]"
        }
      ],
      "stateMutability": "view",
      "type": "function"
    }
  ],
  "bytecode": "0x608060405234801561001057600080fd5b50600160008190555061368d806100286000396000f3fe608060405234801561001057600080fd5b506004361061010b5760003560e01c806386cbee86116100a2578063bd42524a11610071578063bd42524a146102de578063d8f197b6146102fa578063e437a6f414610318578063f695687e14610334578063fe7889d4146103525761010b565b806386cbee86146102445780638c736ca914610262578063928721a31461027e57806395f914cd146102ae5761010b565b806334b76d8a116100de57806334b76d8a1461019657806335f1b834146101c65780633cfbb7fa146101f65780635ddc7b38146102265761010b565b8063059fadb51461011057806312816fc9146101405780631f9ea3d01461015c57806329a261d21461017a575b600080fd5b61012a60048036038101906101259190612a0c565b61036e565b6040516101379190612f96565b60405180910390f35b61015a60048036038101906101559190612b80565b61083b565b005b610164610a44565b6040516101719190613035565b60405180910390f35b610194600480360381019061018f9190612b80565b610a50565b005b6101b060048036038101906101ab9190612a0c565b610ce4565b6040516101bd9190612fb8565b60405180910390f35b6101e060048036038101906101db9190612a0c565b610ffb565b6040516101ed9190612fda565b60405180910390f35b610210600480360381019061020b9190612a0c565b611056565b60405161021d9190612f96565b60405180910390f35b61022e61154d565b60405161023b9190613035565b60405180910390f35b61024c611559565b6040516102599190613035565b60405180910390f35b61027c60048036038101906102779190612a39565b61155f565b005b61029860048036038101906102939190612bad565b6118a8565b6040516102a59190612fda565b60405180910390f35b6102c860048036038101906102c39190612bad565b611915565b6040516102d59190612fda565b60405180910390f35b6102f860048036038101906102f39190612b08565b611982565b005b610302611c32565b60405161030f9190612fb8565b60405180910390f35b610332600480360381019061032d9190612b80565b611ede565b005b61033c61210c565b6040516103499190612f96565b60405180910390f35b61036c60048036038101906103679190612b80565b612487565b005b6060600061037c600261271b565b9050600080600090505b82811015610462576003600060018361039f919061330d565b815260200190815260200160002060010160009054906101000a900473ffffffffffffffffffffffffffffffffffffffff1673ffffffffffffffffffffffffffffffffffffffff168573ffffffffffffffffffffffffffffffffffffffff16141561044f57600060036000600184610417919061330d565b81526020019081526020016000206002015490506003600082815260200190815260200160002060030154925061044d81612729565b505b808061045a90613496565b915050610386565b50600061046f600161271b565b90506000808367ffffffffffffffff81111561048e5761048d61356c565b5b6040519080825280602002602001820160405280156104c757816020015b6104b4612801565b8152602001906001900390816104ac5790505b50905060005b8381101561082d576000600760006001846104e8919061330d565b81526020019081526020016000206002015490506007600082815260200190815260200160002060010160009054906101000a900473ffffffffffffffffffffffffffffffffffffffff1673ffffffffffffffffffffffffffffffffffffffff168973ffffffffffffffffffffffffffffffffffffffff161415610819576000600760008381526020019081526020016000209050806040518061012001604052908160008201805461059a90613433565b80601f01602080910402602001604051908101604052809291908181526020018280546105c690613433565b80156106135780601f106105e857610100808354040283529160200191610613565b820191906000526020600020905b8154815290600101906020018083116105f657829003601f168201915b505050505081526020016001820160009054906101000a900473ffffffffffffffffffffffffffffffffffffffff1673ffffffffffffffffffffffffffffffffffffffff1673ffffffffffffffffffffffffffffffffffffffff168152602001600282015481526020016003820160009054906101000a900460ff1615151515815260200160048201548152602001600582015481526020016006820180546106bb90613433565b80601f01602080910402602001604051908101604052809291908181526020018280546106e790613433565b80156107345780601f1061070957610100808354040283529160200191610734565b820191906000526020600020905b81548152906001019060200180831161071757829003601f168201915b5050505050815260200160078201805461074d90613433565b80601f016020809104026020016040519081016040528092919081815260200182805461077990613433565b80156107c65780601f1061079b576101008083540402835291602001916107c6565b820191906000526020600020905b8154815290600101906020018083116107a957829003601f168201915b505050505081526020016008820160009054906101000a900460ff1615151515815250508486815181106107fd576107fc61353d565b5b6020026020010181905250600185610815919061330d565b9450505b50808061082590613496565b9150506104cd565b508095505050505050919050565b6000610847600161271b565b90506000610855600261271b565b905060008060005b848110156109465760076000600183610876919061330d565b815260200190815260200160002060020154861415610933576001600760006001846108a2919061330d565b815260200190815260200160002060050160008282546108c29190613363565b925050819055506000600660003373ffffffffffffffffffffffffffffffffffffffff1673ffffffffffffffffffffffffffffffffffffffff168152602001908152602001600020600088815260200190815260200160002060006101000a81548160ff0219169083151502179055505b808061093e90613496565b91505061085d565b5060005b83811015610a015760036000600183610963919061330d565b815260200190815260200160002060010160009054906101000a900473ffffffffffffffffffffffffffffffffffffffff1673ffffffffffffffffffffffffffffffffffffffff163373ffffffffffffffffffffffffffffffffffffffff1614156109ee57600360006001836109d9919061330d565b81526020019081526020016000206002015492505b80806109f990613496565b91505061094a565b507fcbd198d2db332dda8c98fdf5a030a711b52d24228b598e0ca72f25bce935445b858383604051610a359392919061319c565b60405180910390a15050505050565b60018060000154905081565b6000610a5c600161271b565b90506000610a6a600261271b565b9050600080600080600090505b85811015610b9c5760076000600183610a90919061330d565b815260200190815260200160002060020154871415610b895760016007600089815260200190815260200160002060030160006101000a81548160ff0219169083151502179055506001600760008981526020019081526020016000206004016000828254610aff9190613363565b92505081905550600760008881526020019081526020016000206004015492506000600560003373ffffffffffffffffffffffffffffffffffffffff1673ffffffffffffffffffffffffffffffffffffffff168152602001908152602001600020600089815260200190815260200160002060006101000a81548160ff0219169083151502179055505b8080610b9490613496565b915050610a77565b5060005b84811015610c9e5760036000600183610bb9919061330d565b815260200190815260200160002060010160009054906101000a900473ffffffffffffffffffffffffffffffffffffffff1673ffffffffffffffffffffffffffffffffffffffff163373ffffffffffffffffffffffffffffffffffffffff161415610c8b5760036000600183610c2f919061330d565b81526020019081526020016000206002015493506001600360008681526020019081526020016000206004016000828254610c6a9190613363565b92505081905550600360008581526020019081526020016000206004015491505b8080610c9690613496565b915050610ba0565b507fe03958765087ba4285f007f8303e6c4a175225438095d112640d4736512b63ca86848484604051610cd494939291906131d3565b60405180910390a1505050505050565b60606000610cf2600261271b565b9050600080600167ffffffffffffffff811115610d1257610d1161356c565b5b604051908082528060200260200182016040528015610d4b57816020015b610d38612867565b815260200190600190039081610d305790505b50905060005b83811015610fef5760036000600183610d6a919061330d565b815260200190815260200160002060010160009054906101000a900473ffffffffffffffffffffffffffffffffffffffff1673ffffffffffffffffffffffffffffffffffffffff168673ffffffffffffffffffffffffffffffffffffffff161415610fdc57600060036000600184610de2919061330d565b81526020019081526020016000206002015490506000600360008381526020019081526020016000209050806040518060e0016040529081600082018054610e2990613433565b80601f0160208091040260200160405190810160405280929190818152602001828054610e5590613433565b8015610ea25780601f10610e7757610100808354040283529160200191610ea2565b820191906000526020600020905b815481529060010190602001808311610e8557829003601f168201915b505050505081526020016001820160009054906101000a900473ffffffffffffffffffffffffffffffffffffffff1673ffffffffffffffffffffffffffffffffffffffff1673ffffffffffffffffffffffffffffffffffffffff16815260200160028201548152602001600382015481526020016004820154815260200160058201548152602001600682018054610f3990613433565b80601f0160208091040260200160405190810160405280929190818152602001828054610f6590613433565b8015610fb25780601f10610f8757610100808354040283529160200191610fb2565b820191906000526020600020905b815481529060010190602001808311610f9557829003601f168201915b505050505081525050848681518110610fce57610fcd61353d565b5b602002602001018190525050505b8080610fe790613496565b915050610d51565b50809350505050919050565b600080600460008473ffffffffffffffffffffffffffffffffffffffff1673ffffffffffffffffffffffffffffffffffffffff16815260200190815260200160002060009054906101000a900460ff16905080915050919050565b60606000611064600261271b565b9050600080600090505b828110156111415760036000600183611087919061330d565b815260200190815260200160002060010160009054906101000a900473ffffffffffffffffffffffffffffffffffffffff1673ffffffffffffffffffffffffffffffffffffffff168573ffffffffffffffffffffffffffffffffffffffff16141561112e576000600360006001846110ff919061330d565b815260200190815260200160002060020154905060036000828152602001908152602001600020600401549250505b808061113990613496565b91505061106e565b50600061114e600161271b565b905060008267ffffffffffffffff81111561116c5761116b61356c565b5b6040519080825280602002602001820160405280156111a557816020015b611192612801565b81526020019060019003908161118a5790505b5090506000805b8381101561153f576000600760006001846111c7919061330d565b815260200190815260200160002060020154905060011515600560008b73ffffffffffffffffffffffffffffffffffffffff1673ffffffffffffffffffffffffffffffffffffffff168152602001908152602001600020600083815260200190815260200160002060009054906101000a900460ff1615151480156112735750600115156007600083815260200190815260200160002060030160009054906101000a900460ff161515145b1561152b57600060076000838152602001908152602001600020905080604051806101200160405290816000820180546112ac90613433565b80601f01602080910402602001604051908101604052809291908181526020018280546112d890613433565b80156113255780601f106112fa57610100808354040283529160200191611325565b820191906000526020600020905b81548152906001019060200180831161130857829003601f168201915b505050505081526020016001820160009054906101000a900473ffffffffffffffffffffffffffffffffffffffff1673ffffffffffffffffffffffffffffffffffffffff1673ffffffffffffffffffffffffffffffffffffffff168152602001600282015481526020016003820160009054906101000a900460ff1615151515815260200160048201548152602001600582015481526020016006820180546113cd90613433565b80601f01602080910402602001604051908101604052809291908181526020018280546113f990613433565b80156114465780601f1061141b57610100808354040283529160200191611446565b820191906000526020600020905b81548152906001019060200180831161142957829003601f168201915b5050505050815260200160078201805461145f90613433565b80601f016020809104026020016040519081016040528092919081815260200182805461148b90613433565b80156114d85780601f106114ad576101008083540402835291602001916114d8565b820191906000526020600020905b8154815290600101906020018083116114bb57829003601f168201915b505050505081526020016008820160009054906101000a900460ff16151515158152505085858151811061150f5761150e61353d565b5b6020026020010181905250600184611527919061330d565b9350505b50808061153790613496565b9150506111ac565b508195505050505050919050565b60028060000154905081565b60095481565b600260005414156115a5576040517f08c379a000000000000000000000000000000000000000000000000000000000815260040161159c90613015565b60405180910390fd5b60026000819055506115b760016127c2565b60006115c3600161271b565b90506040518061012001604052808781526020018673ffffffffffffffffffffffffffffffffffffffff16815260200182815260200160001515815260200160008152602001600081526020018581526020018481526020018315158152506007600083815260200190815260200160002060008201518160000190805190602001906116519291906128ba565b5060208201518160010160006101000a81548173ffffffffffffffffffffffffffffffffffffffff021916908373ffffffffffffffffffffffffffffffffffffffff1602179055506040820151816002015560608201518160030160006101000a81548160ff0219169083151502179055506080820151816004015560a0820151816005015560c08201518160060190805190602001906116f39291906128ba565b5060e08201518160070190805190602001906117109291906128ba565b506101008201518160080160006101000a81548160ff0219169083151502179055509050506000611741600261271b565b905060008060005b838110156118475760036000600183611762919061330d565b815260200190815260200160002060010160009054906101000a900473ffffffffffffffffffffffffffffffffffffffff1673ffffffffffffffffffffffffffffffffffffffff168973ffffffffffffffffffffffffffffffffffffffff16141561183457600360006001836117d8919061330d565b81526020019081526020016000206002015492506001600360008581526020019081526020016000206003016000828254611813919061330d565b92505081905550600360008481526020019081526020016000206003015491505b808061183f90613496565b915050611749565b507f509614f3fe1e6d51f6b11bea192f0c8e4e0005f7622ae8eae17d22c0a44c44e8848a8a60008060008d8d8d8b8b60405161188d9b9a99989796959493929190613050565b60405180910390a15050505060016000819055505050505050565b600080600560008473ffffffffffffffffffffffffffffffffffffffff1673ffffffffffffffffffffffffffffffffffffffff168152602001908152602001600020600085815260200190815260200160002060009054906101000a900460ff1690508091505092915050565b600080600660008473ffffffffffffffffffffffffffffffffffffffff1673ffffffffffffffffffffffffffffffffffffffff168152602001908152602001600020600085815260200190815260200160002060009054906101000a900460ff1690508091505092915050565b600260005414156119c8576040517f08c379a00000000000000000000000000000000000000000000000000000000081526004016119bf90613015565b60405180910390fd5b600260008190555060001515600460003373ffffffffffffffffffffffffffffffffffffffff1673ffffffffffffffffffffffffffffffffffffffff16815260200190815260200160002060009054906101000a900460ff16151514611a63576040517f08c379a0000000000000000000000000000000000000000000000000000000008152600401611a5a90612ff5565b60405180910390fd5b611a6d60026127c2565b6000611a79600261271b565b90506040518060e001604052808481526020013373ffffffffffffffffffffffffffffffffffffffff16815260200182815260200160008152602001600081526020016000815260200183815250600360008381526020019081526020016000206000820151816000019080519060200190611af69291906128ba565b5060208201518160010160006101000a81548173ffffffffffffffffffffffffffffffffffffffff021916908373ffffffffffffffffffffffffffffffffffffffff16021790555060408201518160020155606082015181600301556080820151816004015560a0820151816005015560c0820151816006019080519060200190611b829291906128ba565b509050506001600460003373ffffffffffffffffffffffffffffffffffffffff1673ffffffffffffffffffffffffffffffffffffffff16815260200190815260200160002060006101000a81548160ff0219169083151502179055507f19068c643aeea291d3f1edbab417b3bdba710ad056f8b11d73d07c9b800c686c81848433600080600080604051611c1d989796959493929190613110565b60405180910390a15060016000819055505050565b60606000611c40600261271b565b90506000808267ffffffffffffffff811115611c5f57611c5e61356c565b5b604051908082528060200260200182016040528015611c9857816020015b611c85612867565b815260200190600190039081611c7d5790505b50905060005b83811015611ed457600060036000600184611cb9919061330d565b81526020019081526020016000206002015490506000600360008381526020019081526020016000209050806040518060e0016040529081600082018054611d0090613433565b80601f0160208091040260200160405190810160405280929190818152602001828054611d2c90613433565b8015611d795780601f10611d4e57610100808354040283529160200191611d79565b820191906000526020600020905b815481529060010190602001808311611d5c57829003601f168201915b505050505081526020016001820160009054906101000a900473ffffffffffffffffffffffffffffffffffffffff1673ffffffffffffffffffffffffffffffffffffffff1673ffffffffffffffffffffffffffffffffffffffff16815260200160028201548152602001600382015481526020016004820154815260200160058201548152602001600682018054611e1090613433565b80601f0160208091040260200160405190810160405280929190818152602001828054611e3c90613433565b8015611e895780601f10611e5e57610100808354040283529160200191611e89565b820191906000526020600020905b815481529060010190602001808311611e6c57829003601f168201915b505050505081525050848681518110611ea557611ea461353d565b5b6020026020010181905250600185611ebd919061330d565b945050508080611ecc90613496565b915050611c9e565b5080935050505090565b6000611eea600161271b565b90506000611ef8600261271b565b905060008060005b8481101561200e5760076000600183611f19919061330d565b815260200190815260200160002060020154861415611ffb57600160076000600184611f45919061330d565b81526020019081526020016000206005016000828254611f65919061330d565b9250508190555060076000600183611f7d919061330d565b81526020019081526020016000206005015491506001600660003373ffffffffffffffffffffffffffffffffffffffff1673ffffffffffffffffffffffffffffffffffffffff168152602001908152602001600020600088815260200190815260200160002060006101000a81548160ff0219169083151502179055505b808061200690613496565b915050611f00565b5060005b838110156120c9576003600060018361202b919061330d565b815260200190815260200160002060010160009054906101000a900473ffffffffffffffffffffffffffffffffffffffff1673ffffffffffffffffffffffffffffffffffffffff163373ffffffffffffffffffffffffffffffffffffffff1614156120b657600360006001836120a1919061330d565b81526020019081526020016000206002015492505b80806120c190613496565b915050612012565b507f18e8151d2581636edffc5ecf4a4e34d3894e39d36b3375f19bd91738281cafff8583836040516120fd9392919061319c565b60405180910390a15050505050565b6060600061211a600161271b565b9050600081905060008267ffffffffffffffff81111561213d5761213c61356c565b5b60405190808252806020026020018201604052801561217657816020015b612163612801565b81526020019060019003908161215b5790505b50905060005b8381101561247d57600060076000600184612197919061330d565b8152602001908152602001600020600201549050600060076000838152602001908152602001600020905080604051806101200160405290816000820180546121df90613433565b80601f016020809104026020016040519081016040528092919081815260200182805461220b90613433565b80156122585780601f1061222d57610100808354040283529160200191612258565b820191906000526020600020905b81548152906001019060200180831161223b57829003601f168201915b505050505081526020016001820160009054906101000a900473ffffffffffffffffffffffffffffffffffffffff1673ffffffffffffffffffffffffffffffffffffffff1673ffffffffffffffffffffffffffffffffffffffff168152602001600282015481526020016003820160009054906101000a900460ff16151515158152602001600482015481526020016005820154815260200160068201805461230090613433565b80601f016020809104026020016040519081016040528092919081815260200182805461232c90613433565b80156123795780601f1061234e57610100808354040283529160200191612379565b820191906000526020600020905b81548152906001019060200180831161235c57829003601f168201915b5050505050815260200160078201805461239290613433565b80601f01602080910402602001604051908101604052809291908181526020018280546123be90613433565b801561240b5780601f106123e05761010080835404028352916020019161240b565b820191906000526020600020905b8154815290600101906020018083116123ee57829003601f168201915b505050505081526020016008820160009054906101000a900460ff1615151515815250508460018761243d9190613363565b8151811061244e5761244d61353d565b5b60200260200101819052506001856124669190613363565b94505050808061247590613496565b91505061217c565b5080935050505090565b6000612493600161271b565b905060006124a1600261271b565b9050600080600080600090505b858110156125d357600760006001836124c7919061330d565b8152602001908152602001600020600201548714156125c05760016007600089815260200190815260200160002060030160006101000a81548160ff0219169083151502179055506001600760008981526020019081526020016000206004016000828254612536919061330d565b92505081905550600760008881526020019081526020016000206004015492506001600560003373ffffffffffffffffffffffffffffffffffffffff1673ffffffffffffffffffffffffffffffffffffffff168152602001908152602001600020600089815260200190815260200160002060006101000a81548160ff0219169083151502179055505b80806125cb90613496565b9150506124ae565b5060005b848110156126d557600360006001836125f0919061330d565b815260200190815260200160002060010160009054906101000a900473ffffffffffffffffffffffffffffffffffffffff1673ffffffffffffffffffffffffffffffffffffffff163373ffffffffffffffffffffffffffffffffffffffff1614156126c25760036000600183612666919061330d565b815260200190815260200160002060020154935060016003600086815260200190815260200160002060040160008282546126a1919061330d565b92505081905550600360008581526020019081526020016000206004015491505b80806126cd90613496565b9150506125d7565b507fad77d92cdcaf0cc7c279cacaebac6593d5eb61290aa951f6d2038d0ed4ab55ed8684848460405161270b94939291906131d3565b60405180910390a1505050505050565b600081600001549050919050565b6127bf8160405160240161273d9190613035565b6040516020818303038152906040527ff5b1bba9000000000000000000000000000000000000000000000000000000007bffffffffffffffffffffffffffffffffffffffffffffffffffffffff19166020820180517bffffffffffffffffffffffffffffffffffffffffffffffffffffffff83818316178352505050506127d8565b50565b6001816000016000828254019250508190555050565b60008151905060006a636f6e736f6c652e6c6f679050602083016000808483855afa5050505050565b60405180610120016040528060608152602001600073ffffffffffffffffffffffffffffffffffffffff16815260200160008152602001600015158152602001600081526020016000815260200160608152602001606081526020016000151581525090565b6040518060e0016040528060608152602001600073ffffffffffffffffffffffffffffffffffffffff16815260200160008152602001600081526020016000815260200160008152602001606081525090565b8280546128c690613433565b90600052602060002090601f0160209004810192826128e8576000855561292f565b82601f1061290157805160ff191683800117855561292f565b8280016001018555821561292f579182015b8281111561292e578251825591602001919060010190612913565b5b50905061293c9190612940565b5090565b5b80821115612959576000816000905550600101612941565b5090565b600061297061296b8461323d565b613218565b90508281526020810184848401111561298c5761298b6135a0565b5b6129978482856133f1565b509392505050565b6000813590506129ae81613612565b92915050565b6000813590506129c381613629565b92915050565b600082601f8301126129de576129dd61359b565b5b81356129ee84826020860161295d565b91505092915050565b600081359050612a0681613640565b92915050565b600060208284031215612a2257612a216135aa565b5b6000612a308482850161299f565b91505092915050565b600080600080600060a08688031215612a5557612a546135aa565b5b600086013567ffffffffffffffff811115612a7357612a726135a5565b5b612a7f888289016129c9565b9550506020612a908882890161299f565b945050604086013567ffffffffffffffff811115612ab157612ab06135a5565b5b612abd888289016129c9565b935050606086013567ffffffffffffffff811115612ade57612add6135a5565b5b612aea888289016129c9565b9250506080612afb888289016129b4565b9150509295509295909350565b60008060408385031215612b1f57612b1e6135aa565b5b600083013567ffffffffffffffff811115612b3d57612b3c6135a5565b5b612b49858286016129c9565b925050602083013567ffffffffffffffff811115612b6a57612b696135a5565b5b612b76858286016129c9565b9150509250929050565b600060208284031215612b9657612b956135aa565b5b6000612ba4848285016129f7565b91505092915050565b60008060408385031215612bc457612bc36135aa565b5b6000612bd2858286016129f7565b9250506020612be38582860161299f565b9150509250929050565b6000612bf98383612e02565b905092915050565b6000612c0d8383612ed5565b905092915050565b612c1e81613397565b82525050565b612c2d81613397565b82525050565b6000612c3e8261328e565b612c4881856132c9565b935083602082028501612c5a8561326e565b8060005b85811015612c965784840389528151612c778582612bed565b9450612c82836132af565b925060208a01995050600181019050612c5e565b50829750879550505050505092915050565b6000612cb382613299565b612cbd81856132da565b935083602082028501612ccf8561327e565b8060005b85811015612d0b5784840389528151612cec8582612c01565b9450612cf7836132bc565b925060208a01995050600181019050612cd3565b50829750879550505050505092915050565b612d26816133a9565b82525050565b612d35816133a9565b82525050565b612d44816133df565b82525050565b6000612d55826132a4565b612d5f81856132eb565b9350612d6f818560208601613400565b612d78816135af565b840191505092915050565b6000612d8e826132a4565b612d9881856132fc565b9350612da8818560208601613400565b612db1816135af565b840191505092915050565b6000612dc96018836132fc565b9150612dd4826135c0565b602082019050919050565b6000612dec601f836132fc565b9150612df7826135e9565b602082019050919050565b6000610120830160008301518482036000860152612e208282612d4a565b9150506020830151612e356020860182612c15565b506040830151612e486040860182612f78565b506060830151612e5b6060860182612d1d565b506080830151612e6e6080860182612f78565b5060a0830151612e8160a0860182612f78565b5060c083015184820360c0860152612e998282612d4a565b91505060e083015184820360e0860152612eb38282612d4a565b915050610100830151612eca610100860182612d1d565b508091505092915050565b600060e0830160008301518482036000860152612ef28282612d4a565b9150506020830151612f076020860182612c15565b506040830151612f1a6040860182612f78565b506060830151612f2d6060860182612f78565b506080830151612f406080860182612f78565b5060a0830151612f5360a0860182612f78565b5060c083015184820360c0860152612f6b8282612d4a565b9150508091505092915050565b612f81816133d5565b82525050565b612f90816133d5565b82525050565b60006020820190508181036000830152612fb08184612c33565b905092915050565b60006020820190508181036000830152612fd28184612ca8565b905092915050565b6000602082019050612fef6000830184612d2c565b92915050565b6000602082019050818103600083015261300e81612dbc565b9050919050565b6000602082019050818103600083015261302e81612ddf565b9050919050565b600060208201905061304a6000830184612f87565b92915050565b600061016082019050613066600083018e612f87565b8181036020830152613078818d612d83565b9050613087604083018c612c24565b613094606083018b612d2c565b6130a1608083018a612d3b565b6130ae60a0830189612d3b565b81810360c08301526130c08188612d83565b905081810360e08301526130d48187612d83565b90506130e4610100830186612d2c565b6130f2610120830185612f87565b613100610140830184612f87565b9c9b505050505050505050505050565b600061010082019050613126600083018b612f87565b8181036020830152613138818a612d83565b9050818103604083015261314c8189612d83565b905061315b6060830188612c24565b6131686080830187612d3b565b61317560a0830186612d3b565b61318260c0830185612d3b565b61318f60e0830184612d3b565b9998505050505050505050565b60006060820190506131b16000830186612f87565b6131be6020830185612f87565b6131cb6040830184612f87565b949350505050565b60006080820190506131e86000830187612f87565b6131f56020830186612f87565b6132026040830185612f87565b61320f6060830184612f87565b95945050505050565b6000613222613233565b905061322e8282613465565b919050565b6000604051905090565b600067ffffffffffffffff8211156132585761325761356c565b5b613261826135af565b9050602081019050919050565b6000819050602082019050919050565b6000819050602082019050919050565b600081519050919050565b600081519050919050565b600081519050919050565b6000602082019050919050565b6000602082019050919050565b600082825260208201905092915050565b600082825260208201905092915050565b600082825260208201905092915050565b600082825260208201905092915050565b6000613318826133d5565b9150613323836133d5565b9250827fffffffffffffffffffffffffffffffffffffffffffffffffffffffffffffffff03821115613358576133576134df565b5b828201905092915050565b600061336e826133d5565b9150613379836133d5565b92508282101561338c5761338b6134df565b5b828203905092915050565b60006133a2826133b5565b9050919050565b60008115159050919050565b600073ffffffffffffffffffffffffffffffffffffffff82169050919050565b6000819050919050565b60006133ea826133d5565b9050919050565b82818337600083830152505050565b60005b8381101561341e578082015181840152602081019050613403565b8381111561342d576000848401525b50505050565b6000600282049050600182168061344b57607f821691505b6020821081141561345f5761345e61350e565b5b50919050565b61346e826135af565b810181811067ffffffffffffffff8211171561348d5761348c61356c565b5b80604052505050565b60006134a1826133d5565b91507fffffffffffffffffffffffffffffffffffffffffffffffffffffffffffffffff8214156134d4576134d36134df565b5b600182019050919050565b7f4e487b7100000000000000000000000000000000000000000000000000000000600052601160045260246000fd5b7f4e487b7100000000000000000000000000000000000000000000000000000000600052602260045260246000fd5b7f4e487b7100000000000000000000000000000000000000000000000000000000600052603260045260246000fd5b7f4e487b7100000000000000000000000000000000000000000000000000000000600052604160045260246000fd5b600080fd5b600080fd5b600080fd5b600080fd5b6000601f19601f8301169050919050565b7f596f752061726520616c72656164792061206d656d6265720000000000000000600082015250565b7f5265656e7472616e637947756172643a207265656e7472616e742063616c6c00600082015250565b61361b81613397565b811461362657600080fd5b50565b613632816133a9565b811461363d57600080fd5b50565b613649816133d5565b811461365457600080fd5b5056fea2646970667358221220754ab6a8f87f91c1f15270ca9d9771ce34fca13aec00e414b5921d687f58c97464736f6c63430008070033",
  "linkReferences": {},
  "deployedLinkReferences": {}
}