{
  "_format": "hh-sol-artifact-1",
  "contractName": "MemeForest",
  "sourceName": "contracts/MemeForest.sol",
  "abi": [
    {
      "anonymous": false,
      "inputs": [
        {
          "indexed": false,
          "internalType": "uint256",
          "name": "MemeId",
          "type": "uint256"
        },
        {
          "indexed": false,
          "internalType": "string",
          "name": "MemeInfo",
          "type": "string"
        },
        {
          "indexed": false,
          "internalType": "address",
          "name": "MemeCreator",
          "type": "address"
        },
        {
          "indexed": false,
          "internalType": "bool",
          "name": "IsMemeStarred",
          "type": "bool"
        },
        {
          "indexed": false,
          "internalType": "uint256",
          "name": "MemeStars",
          "type": "uint256"
        },
        {
          "indexed": false,
          "internalType": "uint256",
          "name": "MemeLikes",
          "type": "uint256"
        },
        {
          "indexed": false,
          "internalType": "string",
          "name": "DateOfCreation",
          "type": "string"
        },
        {
          "indexed": false,
          "internalType": "string",
          "name": "Filetype",
          "type": "string"
        },
        {
          "indexed": false,
          "internalType": "bool",
          "name": "IsDownloadable",
          "type": "bool"
        },
        {
          "indexed": false,
          "internalType": "uint256",
          "name": "Membernum",
          "type": "uint256"
        },
        {
          "indexed": false,
          "internalType": "uint256",
          "name": "NewNumberMemberMemes",
          "type": "uint256"
        }
      ],
      "name": "CreateMeme",
      "type": "event"
    },
    {
      "anonymous": false,
      "inputs": [
        {
          "indexed": false,
          "internalType": "uint256",
          "name": "MemeId",
          "type": "uint256"
        },
        {
          "indexed": false,
          "internalType": "uint256",
          "name": "NewLikesNo",
          "type": "uint256"
        },
        {
          "indexed": false,
          "internalType": "uint256",
          "name": "CreatorId",
          "type": "uint256"
        },
        {
          "indexed": false,
          "internalType": "address",
          "name": "liker",
          "type": "address"
        }
      ],
      "name": "LikingMeme",
      "type": "event"
    },
    {
      "anonymous": false,
      "inputs": [
        {
          "indexed": false,
          "internalType": "uint256",
          "name": "MemberId",
          "type": "uint256"
        },
        {
          "indexed": false,
          "internalType": "string",
          "name": "MemberName",
          "type": "string"
        },
        {
          "indexed": false,
          "internalType": "string",
          "name": "Datejoined",
          "type": "string"
        },
        {
          "indexed": false,
          "internalType": "address",
          "name": "MemberAddress",
          "type": "address"
        },
        {
          "indexed": false,
          "internalType": "uint256",
          "name": "MemberTotalMemes",
          "type": "uint256"
        },
        {
          "indexed": false,
          "internalType": "uint256",
          "name": "MemberStarredMemes",
          "type": "uint256"
        },
        {
          "indexed": false,
          "internalType": "uint256",
          "name": "MemberDeletedMemes",
          "type": "uint256"
        },
        {
          "indexed": false,
          "internalType": "uint256",
          "name": "MemberTotalLikes",
          "type": "uint256"
        }
      ],
      "name": "Memberjoined",
      "type": "event"
    },
    {
      "anonymous": false,
      "inputs": [
        {
          "indexed": false,
          "internalType": "uint256",
          "name": "MemeId",
          "type": "uint256"
        },
        {
          "indexed": false,
          "internalType": "uint256",
          "name": "NewStarNo",
          "type": "uint256"
        },
        {
          "indexed": false,
          "internalType": "uint256",
          "name": "CreatorId",
          "type": "uint256"
        },
        {
          "indexed": false,
          "internalType": "address",
          "name": "CreatorAddress",
          "type": "address"
        },
        {
          "indexed": false,
          "internalType": "uint256",
          "name": "CreatorStarredMemes",
          "type": "uint256"
        }
      ],
      "name": "StarredMeme",
      "type": "event"
    },
    {
      "anonymous": false,
      "inputs": [
        {
          "indexed": false,
          "internalType": "uint256",
          "name": "MemeId",
          "type": "uint256"
        },
        {
          "indexed": false,
          "internalType": "uint256",
          "name": "NewLikesNo",
          "type": "uint256"
        },
        {
          "indexed": false,
          "internalType": "uint256",
          "name": "CreatorId",
          "type": "uint256"
        },
        {
          "indexed": false,
          "internalType": "address",
          "name": "Unliker",
          "type": "address"
        }
      ],
      "name": "UnLikingMeme",
      "type": "event"
    },
    {
      "anonymous": false,
      "inputs": [
        {
          "indexed": false,
          "internalType": "uint256",
          "name": "MemeId",
          "type": "uint256"
        },
        {
          "indexed": false,
          "internalType": "uint256",
          "name": "NewStarNo",
          "type": "uint256"
        },
        {
          "indexed": false,
          "internalType": "uint256",
          "name": "CreatorId",
          "type": "uint256"
        },
        {
          "indexed": false,
          "internalType": "address",
          "name": "CreatorAddress",
          "type": "address"
        },
        {
          "indexed": false,
          "internalType": "uint256",
          "name": "CreatorStarredMemes",
          "type": "uint256"
        }
      ],
      "name": "UnStarringMeme",
      "type": "event"
    },
    {
      "inputs": [
        {
          "internalType": "string",
          "name": "_name",
          "type": "string"
        },
        {
          "internalType": "string",
          "name": "_date",
          "type": "string"
        }
      ],
      "name": "CreateMembers",
      "outputs": [],
      "stateMutability": "nonpayable",
      "type": "function"
    },
    {
      "inputs": [
        {
          "internalType": "string",
          "name": "memeinfo",
          "type": "string"
        },
        {
          "internalType": "address",
          "name": "_owner",
          "type": "address"
        },
        {
          "internalType": "string",
          "name": "_date",
          "type": "string"
        },
        {
          "internalType": "string",
          "name": "_filetype",
          "type": "string"
        },
        {
          "internalType": "bool",
          "name": "_isDownloadable",
          "type": "bool"
        }
      ],
      "name": "CreateMemeItems",
      "outputs": [],
      "stateMutability": "nonpayable",
      "type": "function"
    },
    {
      "inputs": [
        {
          "internalType": "address",
          "name": "_member",
          "type": "address"
        }
      ],
      "name": "GetMemberByAddr",
      "outputs": [
        {
          "components": [
            {
              "internalType": "string",
              "name": "Name",
              "type": "string"
            },
            {
              "internalType": "address",
              "name": "MemeberAddress",
              "type": "address"
            },
            {
              "internalType": "uint256",
              "name": "MyId",
              "type": "uint256"
            },
            {
              "internalType": "uint256",
              "name": "MyMemes",
              "type": "uint256"
            },
            {
              "internalType": "uint256",
              "name": "MyStarredMemes",
              "type": "uint256"
            },
            {
              "internalType": "uint256",
              "name": "MyDeletedMemes",
              "type": "uint256"
            },
            {
              "internalType": "string",
              "name": "Datejoined",
              "type": "string"
            }
          ],
          "internalType": "struct MemeForest.MemeMembers[]",
          "name": "",
          "type": "tuple[]"
        }
      ],
      "stateMutability": "view",
      "type": "function"
    },
    {
      "inputs": [
        {
          "internalType": "address",
          "name": "sender",
          "type": "address"
        }
      ],
      "name": "IsAMember",
      "outputs": [
        {
          "internalType": "bool",
          "name": "",
          "type": "bool"
        }
      ],
      "stateMutability": "view",
      "type": "function"
    },
    {
      "inputs": [
        {
          "internalType": "uint256",
          "name": "_id",
          "type": "uint256"
        }
      ],
      "name": "LikeMeme",
      "outputs": [],
      "stateMutability": "nonpayable",
      "type": "function"
    },
    {
      "inputs": [],
      "name": "NumOfAllMembers",
      "outputs": [
        {
          "internalType": "uint256",
          "name": "_value",
          "type": "uint256"
        }
      ],
      "stateMutability": "view",
      "type": "function"
    },
    {
      "inputs": [],
      "name": "NumOfAllMemes",
      "outputs": [
        {
          "internalType": "uint256",
          "name": "_value",
          "type": "uint256"
        }
      ],
      "stateMutability": "view",
      "type": "function"
    },
    {
      "inputs": [],
      "name": "NumberOfUploads",
      "outputs": [
        {
          "internalType": "uint256",
          "name": "",
          "type": "uint256"
        }
      ],
      "stateMutability": "view",
      "type": "function"
    },
    {
      "inputs": [
        {
          "internalType": "uint256",
          "name": "_id",
          "type": "uint256"
        }
      ],
      "name": "RemoveStarMeme",
      "outputs": [],
      "stateMutability": "nonpayable",
      "type": "function"
    },
    {
      "inputs": [
        {
          "internalType": "uint256",
          "name": "_id",
          "type": "uint256"
        }
      ],
      "name": "StarMeme",
      "outputs": [],
      "stateMutability": "nonpayable",
      "type": "function"
    },
    {
      "inputs": [
        {
          "internalType": "uint256",
          "name": "_id",
          "type": "uint256"
        }
      ],
      "name": "UnLikeMeme",
      "outputs": [],
      "stateMutability": "nonpayable",
      "type": "function"
    },
    {
      "inputs": [
        {
          "internalType": "uint256",
          "name": "_id",
          "type": "uint256"
        },
        {
          "internalType": "address",
          "name": "sender",
          "type": "address"
        }
      ],
      "name": "WhatDidILike",
      "outputs": [
        {
          "internalType": "bool",
          "name": "",
          "type": "bool"
        }
      ],
      "stateMutability": "view",
      "type": "function"
    },
    {
      "inputs": [
        {
          "internalType": "uint256",
          "name": "_id",
          "type": "uint256"
        },
        {
          "internalType": "address",
          "name": "sender",
          "type": "address"
        }
      ],
      "name": "WhatDidIStar",
      "outputs": [
        {
          "internalType": "bool",
          "name": "",
          "type": "bool"
        }
      ],
      "stateMutability": "view",
      "type": "function"
    },
    {
      "inputs": [],
      "name": "fetchAllMemes",
      "outputs": [
        {
          "components": [
            {
              "internalType": "string",
              "name": "Memeinfo",
              "type": "string"
            },
            {
              "internalType": "address",
              "name": "Owner",
              "type": "address"
            },
            {
              "internalType": "uint256",
              "name": "fileId",
              "type": "uint256"
            },
            {
              "internalType": "bool",
              "name": "starred",
              "type": "bool"
            },
            {
              "internalType": "uint256",
              "name": "Stars",
              "type": "uint256"
            },
            {
              "internalType": "uint256",
              "name": "Likes",
              "type": "uint256"
            },
            {
              "internalType": "string",
              "name": "DateOfCreation",
              "type": "string"
            },
            {
              "internalType": "string",
              "name": "FileType",
              "type": "string"
            },
            {
              "internalType": "bool",
              "name": "IsDownloadable",
              "type": "bool"
            }
          ],
          "internalType": "struct MemeForest.MemeFiles[]",
          "name": "",
          "type": "tuple[]"
        }
      ],
      "stateMutability": "view",
      "type": "function"
    },
    {
      "inputs": [],
      "name": "fetchMembers",
      "outputs": [
        {
          "components": [
            {
              "internalType": "string",
              "name": "Name",
              "type": "string"
            },
            {
              "internalType": "address",
              "name": "MemeberAddress",
              "type": "address"
            },
            {
              "internalType": "uint256",
              "name": "MyId",
              "type": "uint256"
            },
            {
              "internalType": "uint256",
              "name": "MyMemes",
              "type": "uint256"
            },
            {
              "internalType": "uint256",
              "name": "MyStarredMemes",
              "type": "uint256"
            },
            {
              "internalType": "uint256",
              "name": "MyDeletedMemes",
              "type": "uint256"
            },
            {
              "internalType": "string",
              "name": "Datejoined",
              "type": "string"
            }
          ],
          "internalType": "struct MemeForest.MemeMembers[]",
          "name": "",
          "type": "tuple[]"
        }
      ],
      "stateMutability": "view",
      "type": "function"
    },
    {
      "inputs": [
        {
          "internalType": "address",
          "name": "sender",
          "type": "address"
        }
      ],
      "name": "fetchMyMeme",
      "outputs": [
        {
          "components": [
            {
              "internalType": "string",
              "name": "Memeinfo",
              "type": "string"
            },
            {
              "internalType": "address",
              "name": "Owner",
              "type": "address"
            },
            {
              "internalType": "uint256",
              "name": "fileId",
              "type": "uint256"
            },
            {
              "internalType": "bool",
              "name": "starred",
              "type": "bool"
            },
            {
              "internalType": "uint256",
              "name": "Stars",
              "type": "uint256"
            },
            {
              "internalType": "uint256",
              "name": "Likes",
              "type": "uint256"
            },
            {
              "internalType": "string",
              "name": "DateOfCreation",
              "type": "string"
            },
            {
              "internalType": "string",
              "name": "FileType",
              "type": "string"
            },
            {
              "internalType": "bool",
              "name": "IsDownloadable",
              "type": "bool"
            }
          ],
          "internalType": "struct MemeForest.MemeFiles[]",
          "name": "",
          "type": "tuple[]"
        }
      ],
      "stateMutability": "view",
      "type": "function"
    },
    {
      "inputs": [
        {
          "internalType": "address",
          "name": "sender",
          "type": "address"
        }
      ],
      "name": "fetchMyStarredMemes",
      "outputs": [
        {
          "components": [
            {
              "internalType": "string",
              "name": "Memeinfo",
              "type": "string"
            },
            {
              "internalType": "address",
              "name": "Owner",
              "type": "address"
            },
            {
              "internalType": "uint256",
              "name": "fileId",
              "type": "uint256"
            },
            {
              "internalType": "bool",
              "name": "starred",
              "type": "bool"
            },
            {
              "internalType": "uint256",
              "name": "Stars",
              "type": "uint256"
            },
            {
              "internalType": "uint256",
              "name": "Likes",
              "type": "uint256"
            },
            {
              "internalType": "string",
              "name": "DateOfCreation",
              "type": "string"
            },
            {
              "internalType": "string",
              "name": "FileType",
              "type": "string"
            },
            {
              "internalType": "bool",
              "name": "IsDownloadable",
              "type": "bool"
            }
          ],
          "internalType": "struct MemeForest.MemeFiles[]",
          "name": "",
          "type": "tuple[]"
        }
      ],
      "stateMutability": "view",
      "type": "function"
    }
  ],
  "bytecode": "0x608060405234801561001057600080fd5b5060016000819055506136ba806100286000396000f3fe608060405234801561001057600080fd5b506004361061010b5760003560e01c806386cbee86116100a2578063bd42524a11610071578063bd42524a146102de578063d8f197b6146102fa578063e437a6f414610318578063f695687e14610334578063fe7889d4146103525761010b565b806386cbee86146102445780638c736ca914610262578063928721a31461027e57806395f914cd146102ae5761010b565b806334b76d8a116100de57806334b76d8a1461019657806335f1b834146101c65780633cfbb7fa146101f65780635ddc7b38146102265761010b565b8063059fadb51461011057806312816fc9146101405780631f9ea3d01461015c57806329a261d21461017a575b600080fd5b61012a60048036038101906101259190612a1d565b61036e565b6040516101379190612fa7565b60405180910390f35b61015a60048036038101906101559190612b91565b61083b565b005b610164610a67565b6040516101719190613046565b60405180910390f35b610194600480360381019061018f9190612b91565b610a73565b005b6101b060048036038101906101ab9190612a1d565b610d01565b6040516101bd9190612fc9565b60405180910390f35b6101e060048036038101906101db9190612a1d565b611018565b6040516101ed9190612feb565b60405180910390f35b610210600480360381019061020b9190612a1d565b611073565b60405161021d9190612fa7565b60405180910390f35b61022e61156a565b60405161023b9190613046565b60405180910390f35b61024c611576565b6040516102599190613046565b60405180910390f35b61027c60048036038101906102779190612a4a565b61157c565b005b61029860048036038101906102939190612bbe565b6118c1565b6040516102a59190612feb565b60405180910390f35b6102c860048036038101906102c39190612bbe565b61192e565b6040516102d59190612feb565b60405180910390f35b6102f860048036038101906102f39190612b19565b61199b565b005b610302611c4b565b60405161030f9190612fc9565b60405180910390f35b610332600480360381019061032d9190612b91565b611ef7565b005b61033c612123565b6040516103499190612fa7565b60405180910390f35b61036c60048036038101906103679190612b91565b61249e565b005b6060600061037c600261272c565b9050600080600090505b82811015610462576003600060018361039f919061333a565b815260200190815260200160002060010160009054906101000a900473ffffffffffffffffffffffffffffffffffffffff1673ffffffffffffffffffffffffffffffffffffffff168573ffffffffffffffffffffffffffffffffffffffff16141561044f57600060036000600184610417919061333a565b81526020019081526020016000206002015490506003600082815260200190815260200160002060030154925061044d8161273a565b505b808061045a906134c3565b915050610386565b50600061046f600161272c565b90506000808367ffffffffffffffff81111561048e5761048d613599565b5b6040519080825280602002602001820160405280156104c757816020015b6104b4612812565b8152602001906001900390816104ac5790505b50905060005b8381101561082d576000600760006001846104e8919061333a565b81526020019081526020016000206002015490506007600082815260200190815260200160002060010160009054906101000a900473ffffffffffffffffffffffffffffffffffffffff1673ffffffffffffffffffffffffffffffffffffffff168973ffffffffffffffffffffffffffffffffffffffff161415610819576000600760008381526020019081526020016000209050806040518061012001604052908160008201805461059a90613460565b80601f01602080910402602001604051908101604052809291908181526020018280546105c690613460565b80156106135780601f106105e857610100808354040283529160200191610613565b820191906000526020600020905b8154815290600101906020018083116105f657829003601f168201915b505050505081526020016001820160009054906101000a900473ffffffffffffffffffffffffffffffffffffffff1673ffffffffffffffffffffffffffffffffffffffff1673ffffffffffffffffffffffffffffffffffffffff168152602001600282015481526020016003820160009054906101000a900460ff1615151515815260200160048201548152602001600582015481526020016006820180546106bb90613460565b80601f01602080910402602001604051908101604052809291908181526020018280546106e790613460565b80156107345780601f1061070957610100808354040283529160200191610734565b820191906000526020600020905b81548152906001019060200180831161071757829003601f168201915b5050505050815260200160078201805461074d90613460565b80601f016020809104026020016040519081016040528092919081815260200182805461077990613460565b80156107c65780601f1061079b576101008083540402835291602001916107c6565b820191906000526020600020905b8154815290600101906020018083116107a957829003601f168201915b505050505081526020016008820160009054906101000a900460ff1615151515815250508486815181106107fd576107fc61356a565b5b6020026020010181905250600185610815919061333a565b9450505b508080610825906134c3565b9150506104cd565b508095505050505050919050565b6000610847600161272c565b90506000610855600261272c565b905060008060005b848110156109675760076000600183610876919061333a565b81526020019081526020016000206002015486141561095457600760006001836108a0919061333a565b81526020019081526020016000206005015491506001826108c19190613390565b915081600760006001846108d5919061333a565b8152602001908152602001600020600501819055506000600660003373ffffffffffffffffffffffffffffffffffffffff1673ffffffffffffffffffffffffffffffffffffffff168152602001908152602001600020600088815260200190815260200160002060006101000a81548160ff0219169083151502179055505b808061095f906134c3565b91505061085d565b5060005b83811015610a225760036000600183610984919061333a565b815260200190815260200160002060010160009054906101000a900473ffffffffffffffffffffffffffffffffffffffff1673ffffffffffffffffffffffffffffffffffffffff163373ffffffffffffffffffffffffffffffffffffffff161415610a0f57600360006001836109fa919061333a565b81526020019081526020016000206002015492505b8080610a1a906134c3565b91505061096b565b507f6f22834b15f2c447930318dbe9747ed7ada6d8c46f7dfb94076cbc87fbba88fd85828433604051610a5894939291906131ad565b60405180910390a15050505050565b60018060000154905081565b6000610a7f600161272c565b90506000610a8d600261272c565b9050600080600080600090505b85811015610bbb5760076000600183610ab3919061333a565b815260200190815260200160002060020154871415610ba85760006007600089815260200190815260200160002060030160006101000a81548160ff02191690831515021790555060076000888152602001908152602001600020600401549250600183610b219190613390565b92508260076000898152602001908152602001600020600401819055506000600560003373ffffffffffffffffffffffffffffffffffffffff1673ffffffffffffffffffffffffffffffffffffffff168152602001908152602001600020600089815260200190815260200160002060006101000a81548160ff0219169083151502179055505b8080610bb3906134c3565b915050610a9a565b5060005b84811015610cb95760036000600183610bd8919061333a565b815260200190815260200160002060010160009054906101000a900473ffffffffffffffffffffffffffffffffffffffff1673ffffffffffffffffffffffffffffffffffffffff163373ffffffffffffffffffffffffffffffffffffffff161415610ca65760036000600183610c4e919061333a565b815260200190815260200160002060020154935060036000858152602001908152602001600020600401549150600182610c889190613390565b91508160036000868152602001908152602001600020600401819055505b8080610cb1906134c3565b915050610bbf565b507f8bcd06d50421c39e3015900b77062d4d516032817c21c1bf99961953a6161d978683853385604051610cf19594939291906131f2565b60405180910390a1505050505050565b60606000610d0f600261272c565b9050600080600167ffffffffffffffff811115610d2f57610d2e613599565b5b604051908082528060200260200182016040528015610d6857816020015b610d55612878565b815260200190600190039081610d4d5790505b50905060005b8381101561100c5760036000600183610d87919061333a565b815260200190815260200160002060010160009054906101000a900473ffffffffffffffffffffffffffffffffffffffff1673ffffffffffffffffffffffffffffffffffffffff168673ffffffffffffffffffffffffffffffffffffffff161415610ff957600060036000600184610dff919061333a565b81526020019081526020016000206002015490506000600360008381526020019081526020016000209050806040518060e0016040529081600082018054610e4690613460565b80601f0160208091040260200160405190810160405280929190818152602001828054610e7290613460565b8015610ebf5780601f10610e9457610100808354040283529160200191610ebf565b820191906000526020600020905b815481529060010190602001808311610ea257829003601f168201915b505050505081526020016001820160009054906101000a900473ffffffffffffffffffffffffffffffffffffffff1673ffffffffffffffffffffffffffffffffffffffff1673ffffffffffffffffffffffffffffffffffffffff16815260200160028201548152602001600382015481526020016004820154815260200160058201548152602001600682018054610f5690613460565b80601f0160208091040260200160405190810160405280929190818152602001828054610f8290613460565b8015610fcf5780601f10610fa457610100808354040283529160200191610fcf565b820191906000526020600020905b815481529060010190602001808311610fb257829003601f168201915b505050505081525050848681518110610feb57610fea61356a565b5b602002602001018190525050505b8080611004906134c3565b915050610d6e565b50809350505050919050565b600080600460008473ffffffffffffffffffffffffffffffffffffffff1673ffffffffffffffffffffffffffffffffffffffff16815260200190815260200160002060009054906101000a900460ff16905080915050919050565b60606000611081600261272c565b9050600080600090505b8281101561115e57600360006001836110a4919061333a565b815260200190815260200160002060010160009054906101000a900473ffffffffffffffffffffffffffffffffffffffff1673ffffffffffffffffffffffffffffffffffffffff168573ffffffffffffffffffffffffffffffffffffffff16141561114b5760006003600060018461111c919061333a565b815260200190815260200160002060020154905060036000828152602001908152602001600020600401549250505b8080611156906134c3565b91505061108b565b50600061116b600161272c565b905060008267ffffffffffffffff81111561118957611188613599565b5b6040519080825280602002602001820160405280156111c257816020015b6111af612812565b8152602001906001900390816111a75790505b5090506000805b8381101561155c576000600760006001846111e4919061333a565b815260200190815260200160002060020154905060011515600560008b73ffffffffffffffffffffffffffffffffffffffff1673ffffffffffffffffffffffffffffffffffffffff168152602001908152602001600020600083815260200190815260200160002060009054906101000a900460ff1615151480156112905750600115156007600083815260200190815260200160002060030160009054906101000a900460ff161515145b1561154857600060076000838152602001908152602001600020905080604051806101200160405290816000820180546112c990613460565b80601f01602080910402602001604051908101604052809291908181526020018280546112f590613460565b80156113425780601f1061131757610100808354040283529160200191611342565b820191906000526020600020905b81548152906001019060200180831161132557829003601f168201915b505050505081526020016001820160009054906101000a900473ffffffffffffffffffffffffffffffffffffffff1673ffffffffffffffffffffffffffffffffffffffff1673ffffffffffffffffffffffffffffffffffffffff168152602001600282015481526020016003820160009054906101000a900460ff1615151515815260200160048201548152602001600582015481526020016006820180546113ea90613460565b80601f016020809104026020016040519081016040528092919081815260200182805461141690613460565b80156114635780601f1061143857610100808354040283529160200191611463565b820191906000526020600020905b81548152906001019060200180831161144657829003601f168201915b5050505050815260200160078201805461147c90613460565b80601f01602080910402602001604051908101604052809291908181526020018280546114a890613460565b80156114f55780601f106114ca576101008083540402835291602001916114f5565b820191906000526020600020905b8154815290600101906020018083116114d857829003601f168201915b505050505081526020016008820160009054906101000a900460ff16151515158152505085858151811061152c5761152b61356a565b5b6020026020010181905250600184611544919061333a565b9350505b508080611554906134c3565b9150506111c9565b508195505050505050919050565b60028060000154905081565b60095481565b600260005414156115c2576040517f08c379a00000000000000000000000000000000000000000000000000000000081526004016115b990613026565b60405180910390fd5b60026000819055506115d460016127d3565b60006115e0600161272c565b90506040518061012001604052808781526020018673ffffffffffffffffffffffffffffffffffffffff168152602001828152602001600015158152602001600081526020016000815260200185815260200184815260200183151581525060076000838152602001908152602001600020600082015181600001908051906020019061166e9291906128cb565b5060208201518160010160006101000a81548173ffffffffffffffffffffffffffffffffffffffff021916908373ffffffffffffffffffffffffffffffffffffffff1602179055506040820151816002015560608201518160030160006101000a81548160ff0219169083151502179055506080820151816004015560a0820151816005015560c08201518160060190805190602001906117109291906128cb565b5060e082015181600701908051906020019061172d9291906128cb565b506101008201518160080160006101000a81548160ff021916908315150217905550905050600061175e600261272c565b905060008060005b83811015611860576003600060018361177f919061333a565b815260200190815260200160002060010160009054906101000a900473ffffffffffffffffffffffffffffffffffffffff1673ffffffffffffffffffffffffffffffffffffffff168973ffffffffffffffffffffffffffffffffffffffff16141561184d57600360006001836117f5919061333a565b81526020019081526020016000206002015492506003600084815260200190815260200160002060030154915060018261182f919061333a565b91508160036000858152602001908152602001600020600301819055505b8080611858906134c3565b915050611766565b507f509614f3fe1e6d51f6b11bea192f0c8e4e0005f7622ae8eae17d22c0a44c44e8848a8a60008060008d8d8d8b8b6040516118a69b9a99989796959493929190613061565b60405180910390a15050505060016000819055505050505050565b600080600560008473ffffffffffffffffffffffffffffffffffffffff1673ffffffffffffffffffffffffffffffffffffffff168152602001908152602001600020600085815260200190815260200160002060009054906101000a900460ff1690508091505092915050565b600080600660008473ffffffffffffffffffffffffffffffffffffffff1673ffffffffffffffffffffffffffffffffffffffff168152602001908152602001600020600085815260200190815260200160002060009054906101000a900460ff1690508091505092915050565b600260005414156119e1576040517f08c379a00000000000000000000000000000000000000000000000000000000081526004016119d890613026565b60405180910390fd5b600260008190555060001515600460003373ffffffffffffffffffffffffffffffffffffffff1673ffffffffffffffffffffffffffffffffffffffff16815260200190815260200160002060009054906101000a900460ff16151514611a7c576040517f08c379a0000000000000000000000000000000000000000000000000000000008152600401611a7390613006565b60405180910390fd5b611a8660026127d3565b6000611a92600261272c565b90506040518060e001604052808481526020013373ffffffffffffffffffffffffffffffffffffffff16815260200182815260200160008152602001600081526020016000815260200183815250600360008381526020019081526020016000206000820151816000019080519060200190611b0f9291906128cb565b5060208201518160010160006101000a81548173ffffffffffffffffffffffffffffffffffffffff021916908373ffffffffffffffffffffffffffffffffffffffff16021790555060408201518160020155606082015181600301556080820151816004015560a0820151816005015560c0820151816006019080519060200190611b9b9291906128cb565b509050506001600460003373ffffffffffffffffffffffffffffffffffffffff1673ffffffffffffffffffffffffffffffffffffffff16815260200190815260200160002060006101000a81548160ff0219169083151502179055507f19068c643aeea291d3f1edbab417b3bdba710ad056f8b11d73d07c9b800c686c81848433600080600080604051611c36989796959493929190613121565b60405180910390a15060016000819055505050565b60606000611c59600261272c565b90506000808267ffffffffffffffff811115611c7857611c77613599565b5b604051908082528060200260200182016040528015611cb157816020015b611c9e612878565b815260200190600190039081611c965790505b50905060005b83811015611eed57600060036000600184611cd2919061333a565b81526020019081526020016000206002015490506000600360008381526020019081526020016000209050806040518060e0016040529081600082018054611d1990613460565b80601f0160208091040260200160405190810160405280929190818152602001828054611d4590613460565b8015611d925780601f10611d6757610100808354040283529160200191611d92565b820191906000526020600020905b815481529060010190602001808311611d7557829003601f168201915b505050505081526020016001820160009054906101000a900473ffffffffffffffffffffffffffffffffffffffff1673ffffffffffffffffffffffffffffffffffffffff1673ffffffffffffffffffffffffffffffffffffffff16815260200160028201548152602001600382015481526020016004820154815260200160058201548152602001600682018054611e2990613460565b80601f0160208091040260200160405190810160405280929190818152602001828054611e5590613460565b8015611ea25780601f10611e7757610100808354040283529160200191611ea2565b820191906000526020600020905b815481529060010190602001808311611e8557829003601f168201915b505050505081525050848681518110611ebe57611ebd61356a565b5b6020026020010181905250600185611ed6919061333a565b945050508080611ee5906134c3565b915050611cb7565b5080935050505090565b6000611f03600161272c565b90506000611f11600261272c565b905060008060005b848110156120235760076000600183611f32919061333a565b8152602001908152602001600020600201548614156120105760076000600183611f5c919061333a565b8152602001908152602001600020600501549150600182611f7d919061333a565b91508160076000600184611f91919061333a565b8152602001908152602001600020600501819055506001600660003373ffffffffffffffffffffffffffffffffffffffff1673ffffffffffffffffffffffffffffffffffffffff168152602001908152602001600020600088815260200190815260200160002060006101000a81548160ff0219169083151502179055505b808061201b906134c3565b915050611f19565b5060005b838110156120de5760036000600183612040919061333a565b815260200190815260200160002060010160009054906101000a900473ffffffffffffffffffffffffffffffffffffffff1673ffffffffffffffffffffffffffffffffffffffff163373ffffffffffffffffffffffffffffffffffffffff1614156120cb57600360006001836120b6919061333a565b81526020019081526020016000206002015492505b80806120d6906134c3565b915050612027565b507fe89758170802ac2084152ae4b963911fb239a5c7638d97d8cd0a7f139a19f1018582843360405161211494939291906131ad565b60405180910390a15050505050565b60606000612131600161272c565b9050600081905060008267ffffffffffffffff81111561215457612153613599565b5b60405190808252806020026020018201604052801561218d57816020015b61217a612812565b8152602001906001900390816121725790505b50905060005b83811015612494576000600760006001846121ae919061333a565b8152602001908152602001600020600201549050600060076000838152602001908152602001600020905080604051806101200160405290816000820180546121f690613460565b80601f016020809104026020016040519081016040528092919081815260200182805461222290613460565b801561226f5780601f106122445761010080835404028352916020019161226f565b820191906000526020600020905b81548152906001019060200180831161225257829003601f168201915b505050505081526020016001820160009054906101000a900473ffffffffffffffffffffffffffffffffffffffff1673ffffffffffffffffffffffffffffffffffffffff1673ffffffffffffffffffffffffffffffffffffffff168152602001600282015481526020016003820160009054906101000a900460ff16151515158152602001600482015481526020016005820154815260200160068201805461231790613460565b80601f016020809104026020016040519081016040528092919081815260200182805461234390613460565b80156123905780601f1061236557610100808354040283529160200191612390565b820191906000526020600020905b81548152906001019060200180831161237357829003601f168201915b505050505081526020016007820180546123a990613460565b80601f01602080910402602001604051908101604052809291908181526020018280546123d590613460565b80156124225780601f106123f757610100808354040283529160200191612422565b820191906000526020600020905b81548152906001019060200180831161240557829003601f168201915b505050505081526020016008820160009054906101000a900460ff161515151581525050846001876124549190613390565b815181106124655761246461356a565b5b602002602001018190525060018561247d9190613390565b94505050808061248c906134c3565b915050612193565b5080935050505090565b60006124aa600161272c565b905060006124b8600261272c565b9050600080600080600090505b858110156125e657600760006001836124de919061333a565b8152602001908152602001600020600201548714156125d35760016007600089815260200190815260200160002060030160006101000a81548160ff0219169083151502179055506007600088815260200190815260200160002060040154925060018361254c919061333a565b92508260076000898152602001908152602001600020600401819055506001600560003373ffffffffffffffffffffffffffffffffffffffff1673ffffffffffffffffffffffffffffffffffffffff168152602001908152602001600020600089815260200190815260200160002060006101000a81548160ff0219169083151502179055505b80806125de906134c3565b9150506124c5565b5060005b848110156126e45760036000600183612603919061333a565b815260200190815260200160002060010160009054906101000a900473ffffffffffffffffffffffffffffffffffffffff1673ffffffffffffffffffffffffffffffffffffffff163373ffffffffffffffffffffffffffffffffffffffff1614156126d15760036000600183612679919061333a565b8152602001908152602001600020600201549350600360008581526020019081526020016000206004015491506001826126b3919061333a565b91508160036000868152602001908152602001600020600401819055505b80806126dc906134c3565b9150506125ea565b507f349ab4b1917a5eff538064bc7e8e6b816129410c66c0301002f2b7bcd724253d868385338560405161271c9594939291906131f2565b60405180910390a1505050505050565b600081600001549050919050565b6127d08160405160240161274e9190613046565b6040516020818303038152906040527ff5b1bba9000000000000000000000000000000000000000000000000000000007bffffffffffffffffffffffffffffffffffffffffffffffffffffffff19166020820180517bffffffffffffffffffffffffffffffffffffffffffffffffffffffff83818316178352505050506127e9565b50565b6001816000016000828254019250508190555050565b60008151905060006a636f6e736f6c652e6c6f679050602083016000808483855afa5050505050565b60405180610120016040528060608152602001600073ffffffffffffffffffffffffffffffffffffffff16815260200160008152602001600015158152602001600081526020016000815260200160608152602001606081526020016000151581525090565b6040518060e0016040528060608152602001600073ffffffffffffffffffffffffffffffffffffffff16815260200160008152602001600081526020016000815260200160008152602001606081525090565b8280546128d790613460565b90600052602060002090601f0160209004810192826128f95760008555612940565b82601f1061291257805160ff1916838001178555612940565b82800160010185558215612940579182015b8281111561293f578251825591602001919060010190612924565b5b50905061294d9190612951565b5090565b5b8082111561296a576000816000905550600101612952565b5090565b600061298161297c8461326a565b613245565b90508281526020810184848401111561299d5761299c6135cd565b5b6129a884828561341e565b509392505050565b6000813590506129bf8161363f565b92915050565b6000813590506129d481613656565b92915050565b600082601f8301126129ef576129ee6135c8565b5b81356129ff84826020860161296e565b91505092915050565b600081359050612a178161366d565b92915050565b600060208284031215612a3357612a326135d7565b5b6000612a41848285016129b0565b91505092915050565b600080600080600060a08688031215612a6657612a656135d7565b5b600086013567ffffffffffffffff811115612a8457612a836135d2565b5b612a90888289016129da565b9550506020612aa1888289016129b0565b945050604086013567ffffffffffffffff811115612ac257612ac16135d2565b5b612ace888289016129da565b935050606086013567ffffffffffffffff811115612aef57612aee6135d2565b5b612afb888289016129da565b9250506080612b0c888289016129c5565b9150509295509295909350565b60008060408385031215612b3057612b2f6135d7565b5b600083013567ffffffffffffffff811115612b4e57612b4d6135d2565b5b612b5a858286016129da565b925050602083013567ffffffffffffffff811115612b7b57612b7a6135d2565b5b612b87858286016129da565b9150509250929050565b600060208284031215612ba757612ba66135d7565b5b6000612bb584828501612a08565b91505092915050565b60008060408385031215612bd557612bd46135d7565b5b6000612be385828601612a08565b9250506020612bf4858286016129b0565b9150509250929050565b6000612c0a8383612e13565b905092915050565b6000612c1e8383612ee6565b905092915050565b612c2f816133c4565b82525050565b612c3e816133c4565b82525050565b6000612c4f826132bb565b612c5981856132f6565b935083602082028501612c6b8561329b565b8060005b85811015612ca75784840389528151612c888582612bfe565b9450612c93836132dc565b925060208a01995050600181019050612c6f565b50829750879550505050505092915050565b6000612cc4826132c6565b612cce8185613307565b935083602082028501612ce0856132ab565b8060005b85811015612d1c5784840389528151612cfd8582612c12565b9450612d08836132e9565b925060208a01995050600181019050612ce4565b50829750879550505050505092915050565b612d37816133d6565b82525050565b612d46816133d6565b82525050565b612d558161340c565b82525050565b6000612d66826132d1565b612d708185613318565b9350612d8081856020860161342d565b612d89816135dc565b840191505092915050565b6000612d9f826132d1565b612da98185613329565b9350612db981856020860161342d565b612dc2816135dc565b840191505092915050565b6000612dda601883613329565b9150612de5826135ed565b602082019050919050565b6000612dfd601f83613329565b9150612e0882613616565b602082019050919050565b6000610120830160008301518482036000860152612e318282612d5b565b9150506020830151612e466020860182612c26565b506040830151612e596040860182612f89565b506060830151612e6c6060860182612d2e565b506080830151612e7f6080860182612f89565b5060a0830151612e9260a0860182612f89565b5060c083015184820360c0860152612eaa8282612d5b565b91505060e083015184820360e0860152612ec48282612d5b565b915050610100830151612edb610100860182612d2e565b508091505092915050565b600060e0830160008301518482036000860152612f038282612d5b565b9150506020830151612f186020860182612c26565b506040830151612f2b6040860182612f89565b506060830151612f3e6060860182612f89565b506080830151612f516080860182612f89565b5060a0830151612f6460a0860182612f89565b5060c083015184820360c0860152612f7c8282612d5b565b9150508091505092915050565b612f9281613402565b82525050565b612fa181613402565b82525050565b60006020820190508181036000830152612fc18184612c44565b905092915050565b60006020820190508181036000830152612fe38184612cb9565b905092915050565b60006020820190506130006000830184612d3d565b92915050565b6000602082019050818103600083015261301f81612dcd565b9050919050565b6000602082019050818103600083015261303f81612df0565b9050919050565b600060208201905061305b6000830184612f98565b92915050565b600061016082019050613077600083018e612f98565b8181036020830152613089818d612d94565b9050613098604083018c612c35565b6130a5606083018b612d3d565b6130b2608083018a612d4c565b6130bf60a0830189612d4c565b81810360c08301526130d18188612d94565b905081810360e08301526130e58187612d94565b90506130f5610100830186612d3d565b613103610120830185612f98565b613111610140830184612f98565b9c9b505050505050505050505050565b600061010082019050613137600083018b612f98565b8181036020830152613149818a612d94565b9050818103604083015261315d8189612d94565b905061316c6060830188612c35565b6131796080830187612d4c565b61318660a0830186612d4c565b61319360c0830185612d4c565b6131a060e0830184612d4c565b9998505050505050505050565b60006080820190506131c26000830187612f98565b6131cf6020830186612f98565b6131dc6040830185612f98565b6131e96060830184612c35565b95945050505050565b600060a0820190506132076000830188612f98565b6132146020830187612f98565b6132216040830186612f98565b61322e6060830185612c35565b61323b6080830184612f98565b9695505050505050565b600061324f613260565b905061325b8282613492565b919050565b6000604051905090565b600067ffffffffffffffff82111561328557613284613599565b5b61328e826135dc565b9050602081019050919050565b6000819050602082019050919050565b6000819050602082019050919050565b600081519050919050565b600081519050919050565b600081519050919050565b6000602082019050919050565b6000602082019050919050565b600082825260208201905092915050565b600082825260208201905092915050565b600082825260208201905092915050565b600082825260208201905092915050565b600061334582613402565b915061335083613402565b9250827fffffffffffffffffffffffffffffffffffffffffffffffffffffffffffffffff038211156133855761338461350c565b5b828201905092915050565b600061339b82613402565b91506133a683613402565b9250828210156133b9576133b861350c565b5b828203905092915050565b60006133cf826133e2565b9050919050565b60008115159050919050565b600073ffffffffffffffffffffffffffffffffffffffff82169050919050565b6000819050919050565b600061341782613402565b9050919050565b82818337600083830152505050565b60005b8381101561344b578082015181840152602081019050613430565b8381111561345a576000848401525b50505050565b6000600282049050600182168061347857607f821691505b6020821081141561348c5761348b61353b565b5b50919050565b61349b826135dc565b810181811067ffffffffffffffff821117156134ba576134b9613599565b5b80604052505050565b60006134ce82613402565b91507fffffffffffffffffffffffffffffffffffffffffffffffffffffffffffffffff8214156135015761350061350c565b5b600182019050919050565b7f4e487b7100000000000000000000000000000000000000000000000000000000600052601160045260246000fd5b7f4e487b7100000000000000000000000000000000000000000000000000000000600052602260045260246000fd5b7f4e487b7100000000000000000000000000000000000000000000000000000000600052603260045260246000fd5b7f4e487b7100000000000000000000000000000000000000000000000000000000600052604160045260246000fd5b600080fd5b600080fd5b600080fd5b600080fd5b6000601f19601f8301169050919050565b7f596f752061726520616c72656164792061206d656d6265720000000000000000600082015250565b7f5265656e7472616e637947756172643a207265656e7472616e742063616c6c00600082015250565b613648816133c4565b811461365357600080fd5b50565b61365f816133d6565b811461366a57600080fd5b50565b61367681613402565b811461368157600080fd5b5056fea2646970667358221220e973fa6ce9decf2564ade8fa6cd5eedb5e21d4eb40aed0fca0447833d7590a3964736f6c63430008070033",
  "linkReferences": {},
  "deployedLinkReferences": {}
}